{
  "contractName": "NCoin",
  "abi": [
    {
      "inputs": [],
      "payable": false,
      "stateMutability": "nonpayable",
      "type": "constructor"
    },
    {
      "constant": false,
      "inputs": [
        {
          "internalType": "address",
          "name": "receiver",
          "type": "address"
        },
        {
          "internalType": "uint256",
          "name": "amount",
          "type": "uint256"
        }
      ],
      "name": "send",
      "outputs": [],
      "payable": false,
      "stateMutability": "nonpayable",
      "type": "function"
    },
    {
      "constant": true,
      "inputs": [],
      "name": "getBalance",
      "outputs": [
        {
          "internalType": "uint256",
          "name": "",
          "type": "uint256"
        }
      ],
      "payable": false,
      "stateMutability": "view",
      "type": "function"
    }
  ],
  "bytecode": "0x608060405234801561001057600080fd5b506103e86000803373ffffffffffffffffffffffffffffffffffffffff1673ffffffffffffffffffffffffffffffffffffffff16815260200190815260200160002081905550610209806100656000396000f3fe608060405234801561001057600080fd5b50600436106100365760003560e01c806312065fe01461003b578063d0679d3414610059575b600080fd5b6100436100a7565b6040518082815260200191505060405180910390f35b6100a56004803603604081101561006f57600080fd5b81019080803573ffffffffffffffffffffffffffffffffffffffff169060200190929190803590602001909291905050506100ed565b005b60008060003373ffffffffffffffffffffffffffffffffffffffff1673ffffffffffffffffffffffffffffffffffffffff16815260200190815260200160002054905090565b806000803373ffffffffffffffffffffffffffffffffffffffff1673ffffffffffffffffffffffffffffffffffffffff16815260200190815260200160002054101561013857600080fd5b806000803373ffffffffffffffffffffffffffffffffffffffff1673ffffffffffffffffffffffffffffffffffffffff16815260200190815260200160002060008282540392505081905550806000808473ffffffffffffffffffffffffffffffffffffffff1673ffffffffffffffffffffffffffffffffffffffff16815260200190815260200160002060008282540192505081905550505056fea265627a7a7231582063610a5012703822bbdf48353ca08884fae6a3044b78921763dfed5ca3b5c14464736f6c63430005100032",
  "source": "// SPDX-License-Identifier: MIT\r\npragma solidity >=0.4.22 <0.9.0;\r\n\r\ncontract NCoin {\r\n    // variables\r\n    mapping (address => uint) balance;\r\n\r\n    //constructor\r\n    constructor() public {\r\n        balance[msg.sender] = 1000;\r\n    }\r\n    //Methods\r\n    function send(address receiver, uint amount) public {\r\n        require(balance[msg.sender] >= amount);\r\n        balance[msg.sender] -= amount;\r\n        balance[receiver] += amount;\r\n    }\r\n\r\n    function getBalance() public view returns(uint){\r\n        return balance[msg.sender];\r\n\r\n    }\r\n}",
  "sourcePath": "C:/fer/ProyectsDapps/truffle-teams/contracts/NCoin.sol",
  "compiler": {
    "name": "solc",
    "version": "0.5.16+commit.9c3226ce.Emscripten.clang"
  },
  "schemaVersion": "3.4.1",
  "updatedAt": "2021-06-09T20:52:28.261Z",
  "devdoc": {
    "methods": {}
  },
  "userdoc": {
    "methods": {}
  }
}